:020000040000FA
:10000000D8132020490200004D0200004F020000DA
:1000100000000000000000000000000000000000E0
:10002000000000000000000000000000510200007D
:100030000000000000000000530200004D280000F6
:10004000570200005702000057020000A1280000DC
:10005000570200005702000057020000570200003C
:1000600000000000570200005702000000000000DE
:100070000000000057020000570200005702000075
:1000800057020000570200006528000057020000D8
:1000900057020000570200000000000000000000AE
:1000A000570200005702000000000000000000009E
:1000B0005702000000000000570200005702000035
:1000C00000F002F800F0B1F80CA030C8083824188D
:1000D0002D18671EA246AB4654465D46AC4201D180
:1000E00000F0A3F87E460F3EB6460FCC0126334201
:1000F00000D0FB1A3343A246AB4618476C2C0000D5
:100100008C2C0000000000000023002400250026A5
:10011000103A01D378C1FBD8520700D330C100D5C3
:100120000B60704710B56E2902D100F005FC10BDC0
:10013000702902D100F035FD10BD662902D102F010
:1001400053FD10BD652902D102F04EFD10BD672997
:1001500002D102F049FD10BD612902D102F04CFD2F
:1001600010BD03681B0A01D380231943692902D1FA
:1001700000F0ACFB10BD642902D100F0A7FB10BD5C
:10018000752902D100F0A2FB10BD6F2902D100F049
:10019000B3FC10BD782902D100F0F0FC10BDE929B4
:1001A00002D100F04FFC10BDE42902D100F04AFC5E
:1001B00010BDF52902D100F045FC10BDEF2902D198
:1001C00000F0A6FC10BDF82902D100F0E5FC10BD3E
:1001D0000368DB0901D380231943632902D101F0AD
:1001E000E0F910BD732902D101F0E3F910BDE32954
:1001F00002D101F0EDF910BDF32902D101F0F0F9BF
:1002000010BD002010BD1FB501F04EFA0400002003
:10021000002102F0D3FC401C60600020002102F0AD
:10022000B7FCE0601FBD10B510BD01F016FA114615
:10023000FFF7E9FF02F0E6FB01F0AAFD03B4FFF7C8
:10024000F2FF03BC02F0B4FB06480047FEE7FEE7FE
:10025000FEE7FEE7FEE7FEE703480449024A044BD7
:1002600070470000C1000000D8032020D8132020D0
:10027000D80320200FB4054910B503AA029800F056
:100280006FFB10BC08BC04B0184700006C022020B3
:10029000002203098B4273D3030A8B4258D3030B0A
:1002A0008B423CD3030C8B4221D312E003460B4319
:1002B0007FD4002243088B4274D303098B425FD35F
:1002C000030A8B4244D3030B8B4228D3030C8B428B
:1002D0000DD30902FF2212BA030C8B4202D3121271
:1002E000090265D0030B8B4219D300E0090AC30B46
:1002F0008B4201D3CB03C01A5241830B8B4201D3F3
:100300008B03C01A5241430B8B4201D34B03C01ADB
:100310005241030B8B4201D30B03C01A5241C30A53
:100320008B4201D3CB02C01A5241830A8B4201D3C4
:100330008B02C01A5241430A8B4201D34B02C01AAE
:100340005241030A8B4201D30B02C01A5241CDD253
:10035000C3098B4201D3CB01C01A524183098B429E
:1003600001D38B01C01A524143098B4201D34B0187
:10037000C01A524103098B4201D30B01C01A5241EA
:10038000C3088B4201D3CB00C01A524183088B4271
:1003900001D38B00C01A524143088B4201D34B005A
:1003A000C01A5241411A00D20146524110467047CC
:1003B0005DE0CA0F00D04942031000D340425340D1
:1003C0009C46002203098B422DD3030A8B4212D391
:1003D0008901FC2212BA030A8B420CD389019211C3
:1003E0008B4208D3890192118B4204D389013AD000
:1003F000921100E08909C3098B4201D3CB01C01AD5
:10040000524183098B4201D38B01C01A52414309E7
:100410008B4201D34B01C01A524103098B4201D3D5
:100420000B01C01A5241C3088B4201D3CB00C01A42
:10043000524183088B4201D38B00C01A5241D9D25A
:1004400043088B4201D34B00C01A5241411A00D2DB
:1004500001465241104663465B1001D34042002BD7
:1004600000D54942704763465B1000D3404201B556
:100470000449002802DC491C084000E00846C04648
:10048000C04602BDFFFFFF7F704770477047000006
:100490000246C80FC00781434B0030B54B405B009C
:1004A0009B0D20D01923DB06C91801231B05994297
:1004B00020DB0324A40704251346AB400BD3002BF9
:1004C00004D1EB0613409B00E34204D401246407EB
:1004D000002312195941FF231B0599420BD2C90071
:1004E0000143500F09E0CB0204D501430803024346
:1004F00005D0054830BDFF21C905084330BD084679
:1005000007210905884330BD0000C07FF0B58B4C42
:100510000F09254689B0BD437BD01D092646AE4351
:10052000FAD00E465E402740F60F3E43254071D07C
:1005300024012142FBD0FF24AD19A4042D1B0395F7
:1005400001252D05DB02DB0AC9022B43C90A294319
:100550001E010901040F130F050121431701880B28
:10056000820391432D098C46A90B1E438A039543B0
:10057000B30B9A0396433F09BA0B9403A743029621
:100580002E467E430497B6464E19D7190C4601965F
:10059000544305977E43371B7646BF1B3601B6464C
:1005A000BE0B361900967646BC043719009C01D361
:1005B000641C00946400002F01D001263443029E85
:1005C000049F754366467E430496760034196E0098
:1005D00034190094029C019E1C196643751BAE469B
:1005E000069465464519059C05956C435943754627
:1005F0000891691A0191049E01465143A41B04917C
:10060000611A009C0791E10605D06109012211439E
:1006100002E072E06EE06109089D00272C0A2D06B9
:100620006918049D7C412A0A2D066918019D6241C2
:10063000AC0DAD026D185441079A910D92025519F7
:100640006141029A644658435443069B059A5A43B3
:10065000121A131B9A0E9B015B187A41010B0005BD
:10066000C3185141220A200644195A419A4200D225
:10067000491C01204002814203D315230226F64380
:1006800002E014230326F6432020C51AA94017468A
:10069000AF40DA400A4320460399D8400914731842
:1006A00019055118039A3843D2075140AC4009D07C
:1006B0000122944006D30022401C5141002C01D15C
:1006C000400840001E4A934212D30122039892062A
:1006D000904207DB0520400709181A480143C01261
:1006E000414004E0032040070818C10FC90700205B
:1006F00009B0F0BD0020F107FAE705180C464C419F
:1007000011486D42A04115D394181A465A410E481B
:10071000644290410ED301204A004005824209D331
:100720005A00824206D35940C90F084AC90700201F
:100730001143DDE700200649DAE700000000FF076B
:10074000FE070000FFFFFF7F0000E0FF0000F07FDA
:100750000000F87F0121C9050123411842001B0652
:10076000D3185B0E0AD0C1100722D20689184007A1
:100770005242D14201D5520089187047090208D56A
:100780000146002A03D0C10FC90700207047104658
:100790007047420202D00020024970470721090534
:1007A0000143F4E70000F87F1F22030C02D10F225F
:1007B00000041CD0030E01D10002083A030F01D13E
:1007C0000001121F830F01D18000921E002801DB5F
:1007D0004000521ED20551180212511819229040A1
:1007E00004D3491C002801D1490849000846704734
:1007F000C10FC90700D04042012292071143D3E73D
:1008000001218907D0E770B5044685690068C106F3
:1008100001D5302600E02026C00707D070BD6268F1
:100820003046A1689047206A401C20626D1EF6D5B4
:1008300070BD70B5044685690078C00707D170BDEA
:100840006268A16820209047206A401C20626D1ECB
:10085000F6D570BD09684A0501D540B27047C90593
:10086000FCD500B2704709684A0501D5C0B270478F
:10087000C905FCD580B2704770B50C460546012A03
:1008800005D02878800600D5EA69002302E001231C
:1008900005E05B1C934202D2E05C0028F9D1A86914
:1008A000E618C01AA861286AC01828622846FFF70F
:1008B000AAFF04E06A682078A968641C9047B442E3
:1008C000F8D32846FFF7B5FF70BD0000F7B5002547
:1008D00075291068009914A611D0FFF7BBFF0028F6
:1008E00002DA404211A608E0009909688A0701D59A
:1008F0000FA602E0490704D50EA6012501E0FFF787
:10090000B2FF009F0024243704E000F092FE303153
:100910003955641C0028F8D12B46324621460098F0
:1009200000F04DFAFEBD0000000000002D000000A8
:100930002B0000002000000011680268006A5305C7
:1009400001D5087009E0D30501D5088005E013063C
:1009500002D5C21705C100E0086001207047000001
:10096000084B70B50D467B4400F0FDFD044628465B
:1009700000F03AFE002802D00020C04370BD20469F
:1009800070BD00006F200000F7B50446154686B024
:100990002B487844002703C83E460090019111E09F
:1009A00007986A467100415A02A800F021FE411CD6
:1009B00007D02178890603D5E269391891420ED80B
:1009C0003F18761C2078800602D5E069B84206DD23
:1009D000AE42E5DB07987100405A0028E0D1A069DB
:1009E000C01BA0612046FFF70EFF154878445A3817
:1009F00003C800900020019116E041006A46079864
:100A0000415A02A800F0F4FD0590401C0AD00025D0
:100A100005E0626802A8A168405D90476D1C0598DA
:100A20008542F6D30498401CB0420490E5DB206A6E
:100A3000C01920622046FFF7FCFE09B0F0BD00009F
:100A400072220000F7B5D21D0025D20815A6D200EB
:100A5000F52905CA11D0002A05DA0021404291414A
:100A600011A60A4608E0009909688B0701D50FA670
:100A700002E0490701D50EA601251146009F00247A
:100A8000243704E000F05EF930323A55641C024627
:100A90000A43F7D12B4632462146009800F08FF9E1
:100AA000FEBD0000000000002D0000002B00000033
:100AB0002000000070B504460021243408E05507EA
:100AC000D2086D0F303565545D072A43DB08491C99
:100AD00015461D43F3D10468002310A2250708D54D
:100AE00020252C400C4304D0C46901230CA2641EB1
:100AF000C46100F064F970BD10B504462146106869
:100B0000FFF7B1FE002302462046FFF7D3FF10BDDA
:100B1000D21DD108C9000CC9CCE7000000000000BC
:100B200030000000F8B50F460188090502D5224CB7
:100B30007C4402E0204C7C440E34054600212435E0
:100B400008E016071209360FA65D6E541E073243E1
:100B50001B09491C16461E43F3D122460478002384
:100B6000240705D5702F06D0002901D002231132A9
:100B700000F025F9F8BD01231032F9E770B50446FD
:100B80000D4621461068FFF76EFE002302462946F7
:100B90002046FFF7C7FF70BDD21DD308DB000CCB8A
:100BA000C0E730B40368202412682343036008239D
:100BB000C36130BC0023B5E7DC200000F3B5044678
:100BC000002081B020622046E1688847002872D06A
:100BD000252802D06268A168ABE0594F00267F4407
:100BE0002046E16888472028054608DB312D06D2DB
:100BF000781920380078002801D00643F0E7B007C4
:100C000001D5042086430020E0610746A0612A2D1B
:100C10000AD0284601F0B4FF002827D0B8000019F8
:100C2000303D0090856119E00298BA00121902C89F
:100C3000916102902046E1688847012F054617D14F
:100C4000E06900281FDA202086431CE000980A2172
:100C50008069484300994019303888612046E1682E
:100C60008847054601F08CFF0028EFD1012F0AD0FC
:100C70002E2D08D12046E1688847054620200643EE
:100C80007F1C022FC3DBA069002803DA4042A06169
:100C900001200643F00701D0102086436C2D0BD0B5
:100CA000682D09D04C2D3CD06A2D38D0742D38D009
:100CB0007A2D36D016E040E0E1682F46204688477E
:100CC000B842054609D16C2F29D001208002E16885
:100CD000064320468847054604E06C2F1DD0FF20C0
:100CE00001300643002D28D028464138192803D862
:100CF0000120C00206432035204626602946029A7C
:100D00001646FFF70FFA002810D001280BD0F61D69
:100D1000F008C0000830029055E74020E1E780204D
:100D2000D5E70020D3E7361D02964CE762682846D7
:100D3000A1689047206A401C44E7206AFEBD00007D
:100D4000562000000B4670B502468907800808430C
:100D500019469D08141AA9412509080705430809E1
:100D60002C194841250A01060D43010A2C1941415D
:100D7000200C0D0428430D0C00194D410021401991
:100D80004D41C00869070843E908840F8D002543D9
:100D9000840024184D4124196D41121BAB4107E01A
:100DA0000925ED432C11521963410024401C614177
:100DB0001C460A250026551BB441F1D270BDFFB573
:100DC00004460D4681B0243000902168880604D581
:100DD0001022E0699143216000E00120A84201DD7A
:100DE000471B00E000270498A1697A191018081A17
:100DF000A0612078C00602D42046FFF704FD00263B
:100E000008E003986268A168805D9047206A401CF2
:100E1000761C206204988642F3DB2078C0060AD54F
:100E20002046FFF7F0FC06E06268A168302090479A
:100E3000206A401C206238467F1E0028F4DC07E050
:100E400000986268A168405D9047206A401C20625B
:100E500028466D1E0028F3DC2046FFF7EAFC2078C8
:100E6000000602D5022005B0F0BD0120FBE700001E
:100E7000FFB50C461E468FB003CA089009914F007B
:100E80007D0D00D16D1E002108460020C0460321C3
:100E9000099A89050840002A03DA82008018400870
:100EA0000840800D01280A9002DD0020C0430A900E
:100EB000089807430DD0F048F04928184843071414
:100EC000189800281DD07542291E1DDD0A9842423F
:100ED0001BE01898012802D00020302104E00020F7
:100EE000F24305E02154401CB042FBDB30460022B7
:100EF000189B002121540F998B600A60486013B041
:100F0000F0BDBD1B6D1CDFE70A9A002900DA6942BB
:100F10000BA800F011FC0BAB07CB03AB07C3089980
:100F2000099800F075FC6B4607C30146D4480918C0
:100F3000002D00910BDDD24903980A9A49424018CE
:100F4000002303A90390684600F0D2FE08E003994D
:100F50000A9A0023081803A90390684600F072FE5D
:100F60006B4607C30004000C03D00020C0434108B7
:100F700000E01046189A002A03D00022009215467D
:100F80001EE0751E05D4FFF7DDFE303262556D1E82
:100F9000F9D501220843079602D000227F1C04E005
:100FA0002078302801D100227F1E002A069787D0A2
:100FB0001EE0112D07DAFFF7C5FE303262556D1CB9
:100FC00002460A43F5D1084303D00098002819D0FF
:100FD0000EE00021681E05E0235C625C635422542D
:100FE000401E491C8142F7DBA81B401E0795069056
:100FF000079A18990020A0540F98079B069A8160C1
:101000000CC07CE711260020189059E7D21DF0B5DE
:101010000D460446D10893B0C90003C90C900D9148
:1010200001F098FD02460D98C00F01D02D2007E079
:101030002068810701D52B2002E04007C00F400146
:10104000032A0F9001D0072A05DB034629462046D4
:1010500000F02EFB0EE12078800601D5E76900E064
:1010600006272846652D04D0662814D0672D69D13F
:101070002DE00020112F009001DB112300E07B1CEC
:101080000CAA03A910A8FFF7F3FE119900261098E7
:101090007D1C0E9142E001203B460CAAC0070B903C
:1010A0000120009003A910A8FFF7E2FE119D1298FD
:1010B0001099002600280E9501D1781C0D18781B78
:1010C00002D446427D1C761EE81B00903AE0012FB8
:1010D00000DA01270020112F009001DD112300E02C
:1010E0003B460CAA03A910A8FFF7C2FE11993D4682
:1010F000109800260E91217809070BD40E99A94269
:1011000000DA0D4603A9012D04DD4A19203AD27FE9
:10111000302A06D0B84201DA011D04DA012100911B
:101120000FE06D1EEFE7002802DC86192D1A03E0A0
:10113000411CA94200DD0D46801B401C009001208F
:10114000C0070B902078000705D40098A84202DB66
:101150000020C043009069460020C8720B9801210E
:1011600002AF0337C907884225D0022010902B20F8
:1011700011900B9800280BDA40420B902D20119013
:1011800006E00B9800F055FA30317F1E0B90397055
:101190001099481E00291090F3DC0B980028F0D11C
:1011A00011987F1E38702088000501D5452000E089
:1011B00065207F1E387001A8C01BC01D0B900F98C2
:1011C000002800D0012041190098C01709180B9879
:1011D0000818A169081A401EA0612078C00602D430
:1011E0002046FFF710FB0F98002805D06268A16821
:1011F0009047206A401C20622078C00625D52046F2
:10120000FFF701FB21E0002E07DB0E98B04204DD62
:1012100003A86268805DA16802E06268A16830206E
:101220009047206A761C401C20620098401E0028CF
:1012300000900AD100F038FAC06862680168405C2A
:10124000A1689047206A401C206228466D1E002835
:10125000D9DC07E062683878A1687F1C9047206A73
:10126000401C20620B99481E00290B90F2DC20469E
:10127000FFF7DFFA032042E601FCFFFF104D0000FC
:10128000E1DFFFFFD21DF0B504460D46D0088DB05A
:10129000C000466807683146384601F05BFC0246EC
:1012A000F00F01D02D2307E02068810701D52B2303
:1012B00002E04007C00F43016846002B037001D0D5
:1012C000012000E00020032A0A9001D0072A04DB55
:1012D0002946204600F0ECF92DE12078800601D463
:1012E0000D2500E0E5697000400D0D2D01904BDAF1
:1012F000300D00210B9008460020C04603218905CF
:101300000840002E05DA82008018C20F1018401025
:1013100008408015012801DD0020C043A9000023FA
:10132000182906D39C460A460123183A1B07D340C6
:1013300003E001221205CA4094460C31202902D351
:101340003A46203900E032468A40002802DD002A71
:1013500006D119E0002817D10121C9078A4213D309
:10136000194663467F185E41002806D10120C00758
:10137000824202D1084687439E430B98310D814239
:1013800002D00198401C01902088000502D57149C7
:10139000794402E06F49794419396B460A98302242
:1013A0001A540A980A7C401C1A54401C0A9001984E
:1013B000002801DC302000E031201872019A012061
:1013C000002A02D0644BD21804E072003A4302D0E3
:1013D000614A521C0192002D02DC2278120703D5CB
:1013E0006A462E20507202200022864694460CE067
:1013F00032033601120F6D1E8B5C02AA1354624633
:10140000521C401C9446052A01DA002DF0DC002213
:1014100002AE08E03B0F3F01CB5C521C6D1E335403
:10142000401C082A01DA002DF4DC23689A0601D555
:1014300011E0401E704504DD3218203AD27F302A78
:10144000F7D0002807DD3218203AD27F2E2A02D1A9
:101450001A0700D4401E002D03DD3E223254401CEA
:101460006D1E497C31540199401C002906DA2D215A
:10147000471C315401984042019003E02B21471C46
:10148000315401987D21C900884206DBFEF70EFF2A
:101490003030F0557F1C019101E0642808DB019891
:1014A0006421FEF703FF3030F0557F1C019101E00D
:1014B0000A2806DB01980A21FEF7F8FE3030F055C5
:1014C0007F1C01980A21FEF7F1FE3031F1550A9890
:1014D000A1697F1C7A191018081AA0612078C0062B
:1014E00002D42046FFF78FF9216A6E460A98081841
:1014F000206204E062683078A168761C90470A9800
:10150000401E0A90401CF5D12078C00602D5204626
:10151000FFF779F902AE09E03078761C3E280DD04D
:101520006268A1689047206A401C20627F1EF3D247
:101530002046FFF77EF90DB00320F0BD206A401968
:10154000206203E06268A168302090476D1EEDD3F1
:10155000F8E70000C818000001FCFFFF01694A1C01
:1015600002610878704700B58FB0029100210591A3
:101570000549019379440391114604906846FFF7A9
:101580001DFB0FB000BD0000E5FFFFFF10B5436974
:10159000002B02D0C046C04601E0FFF76DF90120E4
:1015A00010BD1278014624310A7000224A700122CF
:1015B000ECE711680022D243E8E710B54369002B3D
:1015C00002D0C046C04601E0FFF7DEF9012010BDA1
:1015D00012880146243182840022C2840122ECE771
:1015E00011680022D243E8E7C068802108407047B4
:1015F000F8B516460C46054600F04EF80368FF2085
:101600000230C05C012807D0FF2C0FD8185D0028DD
:101610000CD001202C70F8BDFF3332462146083330
:101620001868C71828460023B847F8BD0020C043F3
:10163000F8BD01468008081A02091018020A10189D
:10164000020C1018C008820012185200891A01E01A
:10165000401C0A390A29FBD27047754600F0A0FBEE
:10166000AE46050069465346C008C000854618B01E
:1016700020B5FEF7F1FD60BCB64600260027C0C5C8
:10168000C0C5C0C5C0C5C0C5C0C5C0C5C0C5403D3A
:10169000490849008D46704710B500F005F8001D57
:1016A00010BD00BF1915000000487047200220201F
:1016B000F8B51F46044601230068DB0203260146F5
:1016C0001840072A05DB002801D017A506E017A55A
:1016D00004E0002801D016A500E016A510208143E3
:1016E0002160A069C01E002FA06101D0401EA06132
:1016F0002046FFF788F8002F09D038466268A168B5
:101700009047206A401C2062C01C206206E0206ACC
:10171000FAE762682878A1686D1C9047761EF8D2B7
:101720002046FFF786F8F8BD4E414E006E616E0010
:10173000494E4600696E6600F7B516468AB03348D2
:1017400078446C4603467C33C06F5A689B680DC46E
:101750002E487844763003AC0DC80DC43720C00144
:10176000081837211B30FEF7A1FD05460C46803DC9
:101770001B3C02D56442012000E0002000270990B4
:1017800010E0E0070CD00C20204978437944324621
:101790004C3941186846012300F054FA6B4607C3E0
:1017A00064107F1C002CECD1184F7F442E3F16E0B4
:1017B000E80712D02001C0190EC8069108930792BD
:1017C0000068F04201D1981908903246012306A919
:1017D00003A800F037FA03AB07C36D10641C002D9B
:1017E000E6D10998002806D032466946012303A8AD
:1017F00000F07EFA05E001233246694603A800F0B6
:1018000021FA0A9B07C30DB0F0BD00002C150000A3
:10181000034640000A4610B5400D0BD00121C90710
:101820000F24A40200191C0364082143540D214312
:10183000D20207E000210120F2E7D40F4900214342
:101840005200401E0029F8DADB0FDB07184310BDF9
:10185000FFB50D46144685B04868516801F062F93D
:1018600000910190A868A16801F05CF902910390D1
:10187000A868616801F056F9029A12188242029231
:1018800001D2012000E00020019A0B18D218002894
:10189000019202D08A4202D903E08A4201D2012099
:1018A00000E000200099081800906868A16801F025
:1018B00039F9029A12188242029201D2012000E004
:1018C0000020019A0B18D2180028019202D08A42F7
:1018D00002D903E08A4201D2012000E000200099F1
:1018E000081800902868216840004900400849080D
:1018F0004018FA49471814E001994000C90F0843FD
:101900000090019802994000C90F08430190029885
:1019100003994000C90F08430290039840007F1EBE
:10192000039000980028E7DA0898002801D0EC4ED0
:1019300000E00026B74201DA012000E00020002884
:1019400004902AD0F71BF806C00E15D0029B202168
:10195000091A039A8B401A430392029A019BC240D0
:101960008B401A430292019A009BC2408B4000991F
:101970001A430192C14000917B110DD06F460320A4
:10198000C11A03D500218200B95003E08A0081000A
:10199000BA587A50401EF3D537460398029900286A
:1019A00000D00120014308980291002808460CD07D
:1019B000002800D001200199019A4905084301211E
:1019C000D20AC902D202019200E001210E9B01223B
:1019D000D207012B02D0002B03D013E0002807D13F
:1019E00020E0904204D890420CD1019B0B4209D0D8
:1019F000019B5918019105D10099491C009101D111
:101A00007F1C009200280DD0102108460020C046FF
:101A10000498002806D00F98002803D00821084613
:101A20000020C04628682168019B009A4840C10FE9
:101A30000598C90739430EC009B0F0BDFFB587B09E
:101A4000099A089808995368926840688968964688
:101A50000022039317469446089A12685300099A85
:101A60005B081268520052089A1A9E4BD4180A9AC0
:101A7000002A01D0352200E04022069200220123F4
:101A800015460492DB07059324E0002D05D1754629
:101A90000346039E4D1BB34109D375466646039B1F
:101AA000491B049D9841059B7519AC465F416346EF
:101AB0003B4308D0059B049EDD0776082E435B0858
:101AC0000496059301E0521E641EC50FED074918E8
:101AD0004041521C069B9A42D7DB002D04D175462B
:101AE000039A6B1A824101D203200CE0039A0B4641
:101AF0006B404240134303D0014303D0012002E076
:101B0000022000E00020614601910021009702912F
:101B10000A99002905D0614640020143704B0191AA
:101B200002E08007002302909C4201DA012000E0DD
:101B3000002007003AD01A1BD006C00E15D0029D17
:101B40002021019C091AC5408C402543029C8C40F1
:101B500000D001242543019C0295009DC4408D4086
:101B600000992C430194C140009154111DD06D4641
:101B70000221002202290CD10320001B07E00028CB
:101B800004DB8600AE59002E00D00122401C032841
:101B9000F5DB081B02D588002A5004E08000285895
:101BA00010438A00A850491EE3D51C460A98002815
:101BB00002980CD0002800D001200199019A490513
:101BC00008430121D20AC902D202019200E0012198
:101BD000109B0122D207012B02D0002B03D013E06F
:101BE000002807D11FE0904204D890420CD1019BFD
:101BF0000B4209D0019B5918019105D10099491C4C
:101C0000009101D1641C009200280CD010210846DC
:101C10000020C046002F06D01198002803D00821CC
:101C200008460020C04608980999019A009B006860
:101C300009684840C10F0798C907214382600AC05C
:101C40000BB0F0BD00B585B0019300920A46014685
:101C5000002302A8FFF7FCFD02A807C805B000BDDD
:101C6000FFB50A461F4685B00799019301230091ED
:101C7000014602A8FFF7ECFD02990398049ECA0FE3
:101C80004900D20700920F22490892028C1A0021C3
:101C9000002800DB0C46450013486D08844214D32D
:101CA000079A002A04DA441E0026104DF64302E08B
:101CB00004460D460E46102108460020C046002F5F
:101CC00003D0042108460020C0462005E90A084345
:101CD000009908436905F20A1143ADE602C0FFFF0F
:101CE000013C0000FF3F0000FF070000FFFFFF7FF7
:101CF00000B585B0019300920A460146002302A870
:101D0000FFF79CFE02A807C8A8E7FFB50A461F46D2
:101D100085B00799019301230091014602A8FFF7BE
:101D20008DFE02990398049ECA0F4900D2070092C3
:101D30000F22490892028C1A0021002800DB0C4671
:101D4000450011486D08844214D3079A002A04DA2A
:101D5000441E00260D4DF64302E004460D460E4695
:101D6000102108460020C046002F03D00421084659
:101D70000020C0462005E90A084300990843690588
:101D8000F20A114358E60000FF070000FFFFFF7F43
:101D900010B50446C046C0462046FEF74FFA10BDB7
:101DA000004870470002202082078B079A423FD1EB
:101DB00070B5920F0AD0032402780B78401C491C9E
:101DC000002A33D09A4231D12042F5D1214EF4017C
:101DD00004C808C9951B9543254018D19A420FD1D4
:101DE00004C808C9951B9543254010D19A4207D1D4
:101DF00004C808C9951B9543254008D19A42E7D0ED
:101E000012BA1BBA01209A4200D2404270BD12BAE7
:101E10001BBA2DBA18241000E0401900E140401A06
:101E200005D12E00E64002D1083CF4D1D01A70BD95
:101E300002780B78401C491C002A09D09A4207D12D
:101E400002780B78401C491C002A01D09A42EFD03E
:101E5000D01A70470101010170B58D180478401C3B
:101E6000A207920F01D10278401C231106D10378FA
:101E7000401C03E00678401C0E70491C521EF9D12C
:101E8000002B15D002780C2634408A1A401C0C2CEA
:101E900003D0A401121B9B1C08E004782402121B2F
:101EA000401CF8E714780C70491C521C5B1EF9D5D5
:101EB000A942D3D3002070BD85B0049003A801804F
:101EC00002A9FF20087001A90870FFE703AA108883
:101ED000411E1180002814D0FFE701A90878049A58
:101EE000531C04931278504000900298009B094ABA
:101EF000D25C5040087000990748405C02A9087005
:101F0000E4E702A80078000201A90978401805B0AA
:101F10007047C0460000202000012020811E091FBC
:101F200000BFFCD2704784B00390029101920398E5
:101F300000680090009801998843009000980299E9
:101F4000019A114008430399086004B070470000EB
:101F500081B0009000990120C202E848885001B089
:101F60007047C04682B00190009100980349084331
:101F700001998900084A885002B070478000040027
:101F800082B0019000910098802108430199890056
:101F9000014A885002B070470480424081B00090EE
:101FA0000099B54AB548885001B07047F0B584B083
:101FB00001242202344B19680392914319605A4953
:101FC0000D686D04FCD5457E25409E69A6437419B5
:101FD0009C612024045D03252C40DE69AE43341946
:101FE000DC611F4C256805262660466A37681F623B
:101FF00076685E6207262E402660C4697F252D0222
:10200000DE69AE436406640C3419DC610768456818
:1020100082680092C66802690192426902929A69D6
:10202000104C14403A07120B2D03ADB2AA183243DC
:10203000009D2D072D0D1543019A1543029A154356
:10204000007E2843084A0240101998611868039AD4
:102050001043186008688005FCD504B0F0BDC04688
:10206000001340408D00F0FF72FF0F000649086822
:102070000122904308607047034908680122120258
:10208000904308607047C04608010B402549086826
:1020900001221203104308607047C04681B0014618
:1020A0006846017000780249086001B07047C04678
:1020B00008030B4080B582B0014601A80180018869
:1020C0000F2002021748FFF72EFF02B080BDC04666
:1020D00080B582B0014601A8017001780248032250
:1020E000FFF721FF02B080BD00010B4080B582B038
:1020F000014601A8017001780A483022FFF713FF5A
:1021000002B080BD07498860074802689202FCD58A
:10211000012212040B6813430B600168C906FCD549
:102120007047C04604010B4004020B4081B0009090
:102130000099944A0120885001B0704782B0019004
:102140000091009B0199674A88581843885002B053
:102150007047C04681B0009000990120C2026748D4
:10216000885001B07047C04681B00090009881212E
:1021700049014058C0B201B070470000B0B54A688C
:10218000364BC2504A4A80180A78222A58D89300FF
:1021900001A4E3589F46C0463722000041220000B8
:1021A00037220000412200004122000041220000AD
:1021B0004122000041220000412200004122000093
:1021C0004122000041220000412200004122000083
:1021D000412200004122000025220000412200008F
:1021E000252200004122000041220000412200007F
:1021F0004122000041220000412200004122000053
:102200004122000041220000412200004122000042
:10221000412200004122000025220000412200004E
:102220002522000003231B0704689C4301235B074E
:10223000E318036004E003231B0704689C43046065
:102240000B69C360CB68064C1C40C36A054D1D403A
:102250002B19C362097A11430160B0BD0818000050
:10226000777702008888FDFF81B0009000994F4A7F
:102270004F48885001B0704704080000030000B1C7
:1022800010B50122120383180C789C604B788350A0
:102290008978014A815010BD0C11000081B0009076
:1022A0000099034A885801231843885001B07047A9
:1022B0000418000081B00090009911200202885893
:1022C00001231843885001B07047000082B001908C
:1022D0000091009B0199034A88581843885002B026
:1022E0007047C0462810000081B00090009901207E
:1022F000C2020248885001B07047C0460100002663
:1023000081B000900098812149014058C0B201B0CD
:1023100070470000B0B51122120283580124A34374
:1023200083500B888C781C438B882343094C1C40BA
:102330008358094D1D40631983508B79CC791C4318
:10234000097A21437E231940801842689A43511824
:102350004160B0BD18670000E798FDFF81B00090B4
:102360000098084940580121084001B07047C04614
:1023700081B000900098034940580121084001B005
:102380007047C0460811000081B0009000980249D3
:102390004058C0B201B070472411000081B00090D5
:1023A0000099024A0248885001B0704704080000B2
:1023B000030000B180B584B00390029101920398AC
:1023C0000B49401802990B4AFFF7ADFD03980A49E3
:1023D000401801993F22FFF7A6FD0399074A881884
:1023E000895801221140FFF79EFD04B080BDC04610
:1023F00010110000FFFF0000141100000411000084
:1024000010B50122120383180C789C604978815022
:1024100010BD80B582B00190009101981121090290
:10242000401800990322D203FFF77DFD02B080BD62
:1024300082B00190684601700078019989225201AA
:10244000885002B0704782B00190684601700078F1
:10245000019989225201885002B07047B0B588B006
:1024600007AC0094002020702378591C217002A929
:10247000AA22CA5423785A1C22700622CA542378EE
:102480005A1C22700122CA5423785D1C2570CA543C
:1024900023785D1C2570CA5423785A1C2270AD2203
:1024A000CA542278531C2370885401A90870FFE78E
:1024B00001A8007807A90978884215DAFFE7FFE745
:1024C000BE48FFF755FF002801D0FFE7F8E701A855
:1024D000017802A8415CB948FFF7B5FFFFE7019812
:1024E000401C01A90870E3E708B0B0BD80B586B014
:1024F00005A9087000F0FAFA444800780290032811
:102500007ED80298810001A0405887461D25000012
:10251000432500006D2500009725000005A80078E0
:102520000A280DD1FFE73A4B0020187005981A7859
:10253000511C197037498854344901200870FFE74D
:1025400062E005A8007803280BD1FFE70598304B1F
:102550001A78511C19702F4988542C490220087090
:1025600003E02A4900200870FFE74DE005A8007845
:1025700004280BD1FFE70598254B1A78511C1970D8
:102580002449885421490320087003E01F49002092
:102590000870FFE738E005991D4803785A1C02705F
:1025A0001C4AD1540078092829DBFFE7194801901B
:1025B0000721FFF781FC019A014604A80180D17927
:1025C000127A12028A1803A90A80008809888842B0
:1025D00011D1FFE70F49C87800020A7980180E4A26
:1025E000108048790002897940180C4908800C490C
:1025F00001200870FFE7054900200870FFE703E0AD
:10260000024900200870FFE706B080BD6A02202062
:102610006902202060022020B0032020B80320207F
:10262000C003202080B582B0142002210191FFF761
:10263000A7FC01991520FFF795FC01990E20FFF7E3
:102640009FFC01990F20FFF78DFC02B080BD0000B8
:1026500080B582B010499C480190FFF7D1FE0198E7
:102660000E49FFF757FE019800210091FFF7D1FEB8
:10267000019802210B22FFF79DFE0198012189029A
:10268000FFF724FE0099032000F04EF90198FFF7B0
:1026900011FE02B080BDC046042D0000062D0000D2
:1026A00080B582B000200190FFF7F8FC01204002C5
:1026B000FFF700FD0198FFF70BFDFFF7D7FCFFF7D1
:1026C000DBFC0648FFF772FC1020FFF70FFDFFF759
:1026D000DDFC0198FFF716FD02B080BD102D000053
:1026E00080B5024800F08AF880BDC04680380100FD
:1026F00080B582B00A49F4480190FFF7C1FD019806
:102700000849FFF73BFD01980121FFF717FD122053
:10271000022100F009F90198FFF708FD02B080BD21
:10272000382D00003C2D000080B500F019F8FFF7AF
:1027300079FFFFF7B5FFFFF7DBFF00F041F8FFF788
:1027400087FFFFF7CDFF0449B822002088540349D2
:102750002C22885480BDC046F4022020C4022020D0
:1027600080B586B013480190FFF718FC124802901C
:10277000FFF714FCD4480390FFF776FDA0480490BF
:10278000FFF70CFE50480590FFF708FE0198FFF791
:10279000DFFB0298FFF7DCFB0398FFF7DBFC0498F4
:1027A000FFF7A2FD0598FFF79FFD1020FFF7B6FB8E
:1027B00006B080BD00000A4000200A4000005040E2
:1027C00080B582B00B498E480190FFF719FE019841
:1027D0000949FFF79FFD01980021FFF71AFE0198B4
:1027E00002210B22FFF7E6FD0198FFF763FD02B01F
:1027F00080BDC046502D0000522D000080B584B031
:1028000002900298401E000E002803D0FFE701202E
:10281000039011E00298401E0949086000200190D1
:10282000C043032100F080F8019806490860064A79
:10283000072111600390FFE7039804B080BDC046F4
:1028400014E000E018E000E010E000E061480068FB
:10285000002805D0FFE75F490868401E0860FFE7D1
:102860007047C04680B59848FFF77EFC012810D11C
:10287000FFE7094A1078411CC8B211700A2807D135
:10288000FFE7054900200870044901200870FFE7B0
:1028900000E0FFE780BDC0466B022020C10320207E
:1028A00080B50948FFF72CFD0B280AD1FFE7064841
:1028B000FFF76AFD0146054801700078FFF716FE34
:1028C00000E0FFE780BDC04600005040D603202056
:1028D00081B0014668460170007840B2002809D4F2
:1028E000FFE7684601781F20014001208840024927
:1028F0000860FFE701B0704780E200E081B0014668
:1029000068460170007840B2002809D4FFE76846A5
:1029100001781F2001400120884002490860FFE73C
:1029200001B0704700E100E070B582B0024601A836
:1029300002700091007840B2002817D4FFE701A987
:10294000087840B20322D3431840184A80580978C7
:1029500049B28C07E50EFF24AC40A043009CA401C3
:10296000E4B2AC402043194088501AE001A908782D
:102970000F24204008380322D34318400A4A8058C5
:10298000097849B28D07EE0EFF25B540A843009D9A
:10299000AD01EDB2B54028432140083919408850B7
:1029A000FFE702B070BDC0461CED00E000E400E0AF
:1029B00081B0009001B0704781B000900098054947
:1029C0000860FFE703480068002801D0FFE7F9E747
:1029D00001B07047C002202080B582B00190009104
:1029E000FFE70748FFF7BAFC002801D0FFE7F8E748
:1029F00001A801780248FFF71BFD019802B080BDD5
:102A00000080104080B58CB000200B90FFF78CFE4A
:102A10002C48FFF7D1FF03200990FFF759FF0998D1
:102A2000FFF76CFF12200A90FFF752FF0A98FFF79A
:102A300065FF2548FFF732FCFFF710FD3220FFF756
:102A4000BBFFFFE721480078012839D1FFE71F4984
:102A5000002008701E48008800B2FDF7C9FEFDF78F
:102A600079FE1C4A03921C4B0493FDF74FFDFDF7C2
:102A70000FFD1A49059108601948008800B2FDF75A
:102A8000B7FEFDF767FE039A049BFDF73FFDFDF7D8
:102A9000FFFC01460598134A069211600068FDF795
:102AA00059FE02460698079208910068FDF752FE0B
:102AB000079A089B019100900B48FDF7DBFBFFE7AD
:102AC000C0E7C046B80B000000008640C0032020CD
:102AD000B00320209A9999999999B93FB40320207D
:102AE000B8032020BC0320205C2D000080B582B0FC
:102AF0000B480090AA2101700621417001218170CC
:102B00000222C27001710521FFF7D6F90099024631
:102B100001A80280019A4A714078887102B080BD94
:102B2000C2032020F8B5040C8BB2264682B25E4365
:102B3000104658430D0C370C3604002180191646F8
:102B400079416E43370C36048019264679416E432D
:102B50008919F8BD4900CA020243100000D00420C0
:102B60004A0D01D001221043044A490D914201D17E
:102B700002210843012800D105207047FF0700000B
:102B800030380A2801D20120704700207047000029
:102B900010B500290AD00878002807D005487844E5
:102BA000FFF702F9002801D0002010BD0248784448
:102BB00010BD0000EA010000E201000010B500298C
:102BC0000AD00878002807D005487844FFF7ECF8C9
:102BD000002801D0002010BD0248784410BD00003C
:102BE000DA010000D201000003B4024878448446B0
:102BF00003BC60471DE4FFFF03B4024878448446E9
:102C000003BC604785E6FFFF0000000000000000F5
:102C10003031323334353637383941424344454612
:102C2000403058003031323334353637383961620C
:102C3000636465664030780004000008000000000E
:102C4000000000020001000010303132333435360C
:102C500037383961626364656678700030313233C9
:102C600034353637383941424344454658500000E0
:102C700002400000000000A000000000054000002D
:102C8000000000C8000000000C4000000000409C54
:102C900000000000194000000020BCBE0000000041
:102CA00034400000BFC91B8E00000004B540000086
:102CB000504BCFD06607E2CF010000006C4100000E
:102CC0003E8251AADFEEA73401000000D942000085
:102CD000DCB5A0E23A301F97FFFFFFFFB4450000CC
:102CE000FD25A0C8E9A3C14FFFFFFFFFFF3F000084
:102CF0000000008000000000FF3F00000000008096
:102D00000000000004000000180000000030000077
:102D10000300000000000000000000004000000070
:102D20000000000000000000020000000900000098
:102D3000010000002C00C44104000000020000005B
:102D40009F0F0000000000000000000000000000D5
:102D500004000000180000000030000025662C254B
:102D6000660A000000000000B82E000000002020CD
:102D700000020000581E0000E02F0000000220208A
:102D8000D8110000080100001C00000043000000F2
:102D9000F8FFFFFF0C0000000E0000000F00000015
:102DA0002E0000001001000043000000F8FFFFFFAC
:102DB000004040404040404040404141414141404E
:102DC0004040404040404040404040404040404003
:102DD0004005020202020202020202020202020292
:102DE0000220202020202020202020020202020297
:102DF00002029090909090901010101010101010EF
:102E000010101010101010101010101002020202FA
:102E1000020288888888888808080808080808083E
:102E2000080808080808080808080808020202023A
:102E30004000000000000000000000000000000052
:102E40000000000000000000000000000000000082
:102E50000000000000000000000000000000000072
:102E60000000000000000000000000000000000062
:102E70000000000000000000000000000000000052
:102E80000000000000000000000000000000000042
:102E90000000000000000000000000000000000032
:102EA0000000000000000000000000000000000022
:102EB0000000000000000000200900C1814001C0A6
:102EC000804104610C2108E118A11C011A3001168F
:102ED00038013660012E70012F6000FF00C0C10173
:102EE000C30302C2C60607C705C5C404CC0C0DCD7A
:102EF0000FCFCE0E0ACACB0BC90908C8D81819D9EA
:102F00001BDBDA1A1EDEDF1FDD1D1CDC14D4D51519
:102F1000D71716D6D21213D311D1D010F03031F109
:102F200033F3F23236F6F737F53534F43CFCFD3D39
:102F3000FF3F3EFEFA3A3BFB39F9F83828E8E92929
:102F4000EB2B2AEAEE2E2FEF2DEDEC2CE42425E5D9
:102F500027E7E62622E2E323E12120E0A06061A149
:102F600063A3A26266A6A767A56564A46CACAD6DF9
:102F7000AF6F6EAEAA6A6BAB69A9A86878B8B97969
:102F8000BB7B7ABABE7E7FBF7DBDBC7CB47475B599
:102F900077B7B67672B2B373B17170B05090915189
:102FA0009353529296565797559594549C5C5D9DB9
:102FB0005F9F9E5E5A9A9B5B9959589888484989A9
:102FC0004B8B8A4A4E8E8F4F8D4D4C8C4484854559
:102FD0008747468682424383418180020040000049
:04000005000000C136
:00000001FF
