:020000040800F2
:10000000780700209D010008A5010008A70100084D
:10001000A9010008AB010008AD01000800000000C4
:10002000000000000000000000000000AF01000818
:10003000B101000800000000B3010008B50100088C
:10004000B7010008B7010008B7010008B7010008B0
:10005000B7010008B70100087D06000895060008F2
:10006000AD060008C5060008DD060008B701000857
:10007000B7010008B7010008B7010008B701000880
:10008000B7010008B7010008B7010008B701000870
:10009000B7010008B7010008B7010008F50600081D
:1000A000B7010008B7010008B7010008B701000850
:1000B000A90B0008D50B0008F10B0008B7010008D8
:1000C000B7010008B7010008B7010008B701000830
:1000D000B70100080D0C0008390C0008510C00088D
:1000E000B7010008B7010008B701000800F002F8E6
:1000F00000F045F80AA090E8000C82448344AAF17D
:100100000107DA4501D100F03AF8AFF2090EBAE87A
:100110000F0013F0010F18BFFB1A43F0010318473B
:10012000C8300000E8300000103A24BF78C878C119
:10013000FAD8520724BF30C830C144BF04680C60ED
:10014000704700000023002400250026103A28BF35
:1001500078C1FBD8520728BF30C148BF0B60704739
:10016000642900F09F80752900F09C80732900F0BD
:100170004E82002070471FB51FBD10B510BD00F0A6
:100180004FFA1146FFF7F7FF01F0E4F800F06DFABF
:1001900003B4FFF7F2FF03BC00F070FD094880478D
:1001A00009480047FEE7FEE7FEE7FEE7FEE7FEE759
:1001B000FEE7FEE7FEE7FEE704480549054A064B71
:1001C00070470000490B0008ED000008780100208E
:1001D000780700207803002078030020704710B5CE
:1001E0004C1084EA530404D54042C1F1000138BFE9
:1001F000491E1B4204D55242C3F1000338BF5B1EA7
:1002000000F006F914F0804F04D04042C1F1000123
:1002100038BF491E14F0004F04D05242C3F100030E
:1002200038BF5B1E10BD00000FB41CB5074B06AAFB
:100230007B4469460090059800F0BFF900206946AC
:1002400000F0CEF91CBC5DF814FB0000AD0300000B
:1002500070B50C460546012A05D02878800600D5E1
:10026000EA69002302E0012305E05B1C934202D20D
:10027000E05C0028F9D1A869E618C01AA861286ACC
:10028000184428622846AFF3008004E0D5E9012134
:1002900014F8010B9047B442F8D32846AFF300801E
:1002A00070BD00002DE9F041064600241068752954
:1002B000314616A510D0AFF30080002802DA404284
:1002C00013A507E031688A0701D512A502E04907A6
:1002D00004D511A5012401E0AFF3008000210A221A
:1002E00006F1240709E0B0FBF2FCB0FBF2F302FBDD
:1002F0001C00303078541846491C0028F3D123469E
:100300002A463046BDE8F04100F0F9B80000000090
:100310002D0000002B000000200000002DE9F04718
:10032000884606460020DFF8DC90F944306230460B
:10033000F1688847002862D0252806D0D6E9012137
:100340009047306A401C3062F1E700254F46304646
:10035000F16888472028044607DB312C05D238197C
:1003600010F8200C08B10543F1E7A80701D525F0E6
:1003700004056C2C0AD0682C08D04C2C38D06A2C80
:1003800034D0742C34D07A2C32D015E0F168274662
:1003900030468847B842044609D16C2F26D04FF426
:1003A0008060F168054330468847044604E06C2FBE
:1003B0001AD04FF4807005430CB3A4F14100192802
:1003C00002D8203445F40065424621463046356067
:1003D0004546FFF7C5FE80B101280BD0ED1D25F085
:1003E000070000F10808A2E74020E4E78020D8E7F2
:1003F0000020D6E705F1040899E720469EE7306A19
:10040000BDE8F087A62E0000704770477047704720
:1004100053EA020C00F069802DE9F04B4FF0000622
:10042000002B1FBFB3FA83F503FA05F424FA05F68F
:100430005E4012BF1643B2FA82F502FA05F4C5F126
:1004400020051EBF22FA05FC44EA0C04203556EABA
:10045000044C4FEA144418BF641C4FF000084FF0DE
:100460000009904271EB030C39D3002919BFB1FA8E
:1004700081F701FA07F6B0FA80F700FA07F6C7F13C
:1004800020071EBF20FA07FC46EA0C062037B6FB01
:10049000F4FCA7EB0507103F07F01F0BCBF120067C
:1004A0000CFA0BFB2CFA06F644BFB3460026202FAD
:1004B000A4BF5E464FF0000B5BEA060C08BF4FF08E
:1004C000010B19EB0B09ABFB027C48EB0608C01BC8
:1004D00006FB02CC0BFB03CC71EB0C01C1E70B4616
:1004E000024641464846BDE8F08B13B54FF0000088
:1004F0004FF00001AFF30080BDE81C4070472DE9CC
:10050000F0470D4699469246044600F124080168DA
:10051000880604D5E06921F01001216000E0012087
:10052000A84201DD471B00E00027A1697A1902EB10
:100530000900081AA0612078C00602D42046AFF353
:100540000080002608E0D4E901211AF8060090474F
:10055000206A401C761C20624E45F4DB2078C006E1
:100560000AD52046AFF3008006E0D4E9012130200F
:100570009047206A401C2062381EA7F10107F4DC76
:1005800007E0D4E9012118F805009047206A401CD3
:100590002062281EA5F10105F3DC2046AFF30080A0
:1005A0002078000602D50220BDE8F0870120FBE795
:1005B00001694A1C02610878704700B58FB0CDE927
:1005C00001310021059105497944CDE90310114617
:1005D0006846FFF7A3FE0FB000BD0000E5FFFFFF78
:1005E0000A6802F8010B0A60704710B5436913B13D
:1005F000AFF3008001E0FFF72BFE012010BD127861
:1006000000F124010A7000224A700122EDE711680E
:100610004FF0FF32E9E70000004870471801002062
:100620007546FFF7F9FFAE4605006946534620F0D0
:100630000700854618B020B5FFF7BEFDBDE8204095
:100640004FF000064FF000074FF000084FF0000B8E
:1006500021F00701AC46ACE8C009ACE8C009ACE841
:10066000C009ACE8C0098D46704710B50446AFF329
:1006700000802046BDE81040FFF78ABD04480068AE
:1006800000F0010010B1012001490860704700002E
:10069000140401400448006800F0020010B1022078
:1006A00001490860704700001404014004480068D4
:1006B00000F0040010B104200149086070470000F8
:1006C000140401400448006800F0080010B108203C
:1006D00001490860704700001404014004480068A4
:1006E00000F0100010B110200149086070470000B0
:1006F000140401401548006800F0200010B12020CB
:10070000124908601148006800F0400010B1402014
:100710000E4908600D48006800F0800010B180208C
:100720000A4908600948006800F4807018B14FF465
:100730008070064908600548006800F4007018B130
:100740004FF4007001490860704700001404014034
:10075000014607238B431A02054B18684FF6FF0327
:1007600018401043034B1843014B186070470000BA
:100770000CED00E00000FA0570B505460C460420BB
:10078000FFF7E6FF0E48005D00F0010646EA05109F
:10079000C1B20B4801552046E21704EBD262521158
:1007A000A4EB421301229A402146E31704EBD363E2
:1007B0005B119B0003F1E023C3F8002170BD000032
:1007C00000E400E070B500240EE00021204600F0B7
:1007D000C7F8002504E0002000F032F9681CC5B21B
:1007E000802DF8DB601CC4B2082CEEDB70BD10B5A8
:1007F00002220821012000F09BFB02220921012096
:1008000000F096FB01220821104600F063FC012253
:100810000921104600F05EFC10BD70B505460024AD
:1008200013E08020204100EA05020921012000F0A8
:1008300051FC01220821104600F04CFC0022082146
:10084000012000F047FC601CC4B2082CE9DB012247
:100850000821104600F03EFC00220821012000F093
:1008600039FC70BD10B501220921104600F032FCA0
:1008700001220821104600F02DFC00220921012050
:1008800000F028FC00220821012000F023FC10BD0C
:1008900010B500220921012000F01CFC01220821D2
:1008A000104600F017FC01220921104600F012FC4E
:1008B00010BD70B5002406E0002500E06D1CB5F504
:1008C0007A7FFBD3641CB4F57A7FF5D3FFF78FFFF3
:1008D000AE2000F0A5F8D52000F0A2F8802000F0AE
:1008E0009FF8A82000F09CF83F2000F099F8D32052
:1008F00000F096F8002000F093F8402000F090F807
:10090000A12000F08DF8C82000F08AF8DA2000F06D
:1009100087F8122000F084F8812000F081F8CF20C1
:1009200000F07EF8D92000F07BF8F12000F078F894
:10093000DB2000F075F8302000F072F8A42000F001
:100940006FF8A62000F06CF88D2000F069F81420F4
:1009500000F066F8AF2000F063F8FFF733FF70BDDA
:1009600070B505460C4645F0B00000F059F810216E
:1009700041EA141000F054F804F00F0000F050F8B1
:1009800070BD00002DE9F04105460E461746721E67
:10099000D206110E6A1E5206100EFFF7E1FF002468
:1009A00009E0A7F12001134A02EB0111085D00F0F4
:1009B00047F8601CC4B2082CF3DB721ED206110E7D
:1009C0006A1E012303EB4202D0B2FFF7C9FF0024E5
:1009D0000BE0A7F12001074A02EB011204F1080124
:1009E000505C00F02DF8601CC4B2082CF1DBBDE8AF
:1009F000F0810000E42B00082DE9F04107460E4687
:100A00001546002407E02A5D3019C1B23846FFF7C9
:100A1000B9FF601CC4B2285D0028F4D1BDE8F081A4
:100A200010B50446FFF71EFF7820FFF7F6FE002002
:100A3000FFF7F3FE2046FFF7F0FEFFF729FF10BD9A
:100A400010B50446FFF70EFF7820FFF7E6FE4020C2
:100A5000FFF7E3FE2046FFF7E0FEFFF719FF10BDAA
:100A600010B500F001F810BD0CB500200190009009
:100A70003348006840F480303149086000BF304896
:100A8000006800F4003000900198401C019000982C
:100A900018B90198B0F5A06FF1D12948006800F4A9
:100AA000003010B10120009001E00020009000987B
:100AB000012843D12348006840F010002149086014
:100AC0000846006820F0030008600846006840F00F
:100AD000020008601A4840681949486008464068A2
:100AE00048600846406840F48060486008464068B6
:100AF00020F47C1048600846406840F4E8104860E4
:100B00000846006840F08070086000BF0C4800682C
:100B100000F000700028F9D00948406820F0030078
:100B2000074948600846406840F00200486000BF3E
:100B30000348406800F00C000828F9D10CBD000003
:100B4000001002400020024010B51348006840F039
:100B500001001149086008464068104908400E49E4
:100B60004860084600680E4908400B49086008467E
:100B7000006820F4802008600846406820F4FE00E9
:100B800048604FF41F008860FFF76AFF4FF0006075
:100B90000449086010BD0000001002400000FFF88A
:100BA000FFFFF6FE08ED00E04FF08040008A00F005
:100BB000010060B106480068401C054908604FF01C
:100BC0008040008A20F001004FF080410882704789
:100BD000000000200548008800F0010028B103480B
:100BE000008820F00100014908807047100400408F
:100BF0000548008800F0010028B10348008820F073
:100C000001000149088070471008004010B501E05C
:100C100001F048F90748008800F020000028F7D1CB
:100C20000448008800F0080010B10248001D008848
:100C300010BD0000003801400448008800F020008A
:100C400010B10248001D00887047000000440040B9
:100C500010B501E001F08AF90748008800F0200093
:100C60000028F7D10448008800F0080010B10248BD
:100C7000001D008810BD00000048004000BF704704
:100C800010B5044600221146012000F023FA034863
:100C9000006820440249086010BD000000000020E8
:100CA000300000200021002003E0044A125C514083
:100CB000401C2528F9DB084670470000F0000020A2
:100CC00010B500224FF4E131012001F029F810BDE8
:100CD00010B504462146012001F090F810BD00B582
:100CE000034603E04FF47A7000F005F8181EA3F1F4
:100CF0000103F7D100BD00EBC001C9004FF0E022B5
:100D00005161002191610521116100BF4FF0E02187
:100D1000096901F480310029F8D004214FF0E02264
:100D20001161704710B500240C21012000F0EEF88D
:100D300008B944F001040D21012000F0E7F808B9DA
:100D400044F002040E21012000F0E0F808B944F05C
:100D500004040F21012000F0D9F808B944F0080478
:100D6000204610BD0146092916D2DFE801F015051D
:100D700007090B0D0F11130008A070470BA0FCE72B
:100D80000EA0FAE711A0F8E712A0F6E713A0F4E727
:100D900015A0F2E716A0F0E717A0EEE7456E746520
:100DA000722053656E73696E67000000456E74654E
:100DB000722057656C636F6D650000004C6561764D
:100DC000652057656C636F6D65000000554E4C4F94
:100DD000434B00004C4F434B4544000049442043E3
:100DE00068616E67656400004261642049440000E8
:100DF000546167204C6F737400000000024908784A
:100E00000021014A11707047380000200149087024
:100E100070470000380000202DE9F04104460D46DF
:100E2000A0792179884222DA6179206840F821503E
:100E3000D4E90220521940EBE570C4E90220607940
:100E400000F10100217990FBF1F201FB12006071C9
:100E5000A07900F10100A071A67932464FF000039D
:100E6000D4E902713846FFF7BAF9BDE8F08161793B
:100E7000206850F82100C217D4E90231181A61EB3A
:100E80000201C4E902016179206840F82150D4E9E7
:100E90000220521940EBE570C4E90220607900F1AC
:100EA0000100217990FBF1F201FB120060712679BB
:100EB00032464FF00003D4E902713846FFF78FF94C
:100EC000D3E710B5016002710023437183710024E0
:100ED0008460C46000BF04E0002441F823405C1C2F
:100EE000E3B29342F8DB10BD002141718171002211
:100EF0008260C26000BF05E00022036843F8212041
:100F00004A1CD1B202798A42F6DC704710B502461B
:100F1000064850F82200806801248C4000EA04034F
:100F20000BB1012010BD0020FCE700004C000020A8
:100F300070B5664CA469042585402C43634DAC61B3
:100F400008295DDA624C54F8204024688E000F2591
:100F5000B540AC435E4D55F820502C601AB1032AC1
:100F600001D0022A0FD10124944044F003048D00E3
:100F7000AC40574D55F820502D682C43544D55F832
:100F800020502C60A1E0012A01D0042A2AD1504C23
:100F900054F8204024688E000825B5402C434C4D61
:100FA00055F820502C60012A0ED1494C54F82040AD
:100FB000E46801258D4024EA050301248C401C438C
:100FC000434D55F82050EC60042A7ED1404C54F833
:100FD0002040E56801248C40A5433D4C54F8204056
:100FE000E56072E0042494408D00AC40384D55F823
:100FF00020502D682C43364D55F820502C6064E06D
:10100000334C54F820406468A1F10805AE000F2568
:10101000B540AC432E4D55F820506C601AB1032AF0
:1010200001D0022A11D10124944044F00304A1F11B
:101030000805AD00AC40264D55F820506D682C4396
:10104000234D55F820506C603FE0012A01D0042A5E
:101050002CD11F4C54F820406468A1F10805AE0063
:101060000825B5402C431A4D55F820506C60012AD4
:101070000ED1174C54F82040E56801248C4025EA35
:10108000040301248C401C43114D55F82050EC60A2
:10109000042A1AD10E4C54F82040E56801248C40F3
:1010A000A5430B4C54F82040E5600EE00424944026
:1010B000A1F10805AD00AC40054D55F820506D6814
:1010C0002C43034D55F820506C6070BD0010024059
:1010D0004C00002030B57AB10D4C54F82040E46843
:1010E00001258D4024EA050301248C401C43084D52
:1010F00055F82050EC600AE0054C54F82040E468B4
:1011000001258D40AC43024D55F82050EC6030BDB8
:101110004C00002010B500220D210220FFF708FF2F
:1011200000220E210220FFF703FF00220F210220E0
:10113000FFF7FEFE002211460120FFF7F9FE002214
:101140001146104600F0E6F8012200211046FFF794
:10115000C1FF002003490870034908700349087063
:1011600010BD00002D0000202E0000202F000020C8
:1011700070B504460E4615465C48006868B15C4888
:1011800000685A490968884207D3012200211046A5
:10119000FFF7A0FF0020554908602DB95548007899
:1011A00010B10820FFF732FE35B12EB95248007851
:1011B00010B10720FFF72AFE96B38DB34F48007891
:1011C00084422DD0012C04D0022C06D0032C10D147
:1011D0000BE00120FFF71AFE0CE00220FFF716FEDD
:1011E000434800684649086004E00420FFF70EFE0B
:1011F00000E000BF00BF41480078022807D1022C60
:1012000005D00320FFF702FE00203D4908603B485F
:101210000078032804D1032C02D00520FFF7F6FD47
:10122000344805703448067055B900221146012033
:1012300000F070F80020334908703049087070BD24
:1012400056B900221146012000F064F800202D4913
:1012500008702A490870F2E7032C06D12748007865
:10126000032802D0012027490870032C06D0234808
:101270000078032802D10020224908701F4804701A
:1012800054B3012C21D0022C07D0032C23D10122EE
:101290000021084600F03EF824E000220121084623
:1012A00000F038F81648006870B111480068144919
:1012B0000968884208D33220FFF7E2FC0C48006836
:1012C00000F57A700E4908600CE0002211460120FA
:1012D00000F020F806E000BF00221146012000F0D7
:1012E00019F800BF00BF00BFA9E7000030000020D0
:1012F000000000202F0000202E0000202D000020E4
:10130000340000202C0000200148007870470000C5
:101310002C00002070B504460D4616460CB1012085
:1013200000E0002002460D210220FFF7D3FE0DB1A0
:10133000012000E0002002460E210220FFF7CAFE35
:101340000EB1012000E0002002460F210220FFF72D
:10135000C1FE70BDA8B00024A246A3460025002609
:1013600000270020279026902590804601220C21FE
:101370001046FFF7DDFD01220D211046FFF7D8FDD5
:1013800001220E211046FFF7D3FD01220F21104646
:10139000FFF7CEFDFFF7C6FC8246FFF7BBFEFFF767
:1013A00088FAFFF70FFAFFF7BDFC814609F001004C
:1013B00008B1312000E030208DF88C0009F00200E7
:1013C00008B1312000E030208DF88D0009F00400D4
:1013D00008B1312000E030208DF88E0009F00800BF
:1013E00008B1312000E030208DF88F0000208DF80A
:1013F0009000B9A201210846FFF7FEFA23AABAA17C
:101400001EA8FEF711FF1EAA01210220FFF7F4FA21
:10141000B8A201210320FFF7EFFABAA201210420AC
:10142000FFF7EAFA00F07EFD00F0F8FDFFF748FC58
:1014300000220121104600F0EBFB45F25550B44963
:1014400008600620486040F2712088604CF6CC406D
:1014500008604AF6AA200860AEA201210320FFF727
:10146000CBFA4FF47A70FFF73AFCFFF7ABF900BF05
:10147000ACA105A8FEF7D8FE05A8FFF729FC00BF20
:1014800000BFFFF74FFC81464A46B4A105A8FEF70E
:10149000CBFE05A8FFF71CFC00BF1BE14AF6AA2003
:1014A0009B490860FFF73EFC0446544510D000BF3E
:1014B00023465246B4A105A8FEF7B6FE05A8FFF7DD
:1014C00007FC00BF0620FFF7A1FCA24600F0DEFCEF
:1014D000B3480078002830D00020B1490870279721
:1014E000B048B0F908204168384600F0A5FD07462D
:1014F0002798874204D0B8F1000F01D10020269030
:10150000012500BF384600F0D1FD8146A648B0F95C
:101510000A00A549B1F90810A24A5268CDE90209AA
:10152000CDE90021A04843680268A0A105A8FEF704
:101530007BFE05A8FFF7CCFB00BFA948007868B187
:101540000020A749087000BFA6480278A6A105A8F8
:10155000FEF76AFE05A8FFF7BBFB00BFA7480068BF
:10156000A7490968401AB0F57A7F1DD3A5480068DD
:10157000A5490968A0EB0109B9F1000F0BD000BF24
:10158000A04803684A46A1A105A8FEF74DFE05A89C
:10159000FFF79EFB00BF9B4800689B490860974887
:1015A00000689749086000BF94480068A14909682D
:1015B000401A40F6B831884211D945B100BF9EA10A
:1015C00005A8FEF731FE05A8FFF782FB00BF25B195
:1015D000B8F1000F01D10020269000250027874890
:1015E000006899490968401AB0F5FA7F01D20120D4
:1015F00000E0002006462EB17A480078A04201D1D2
:10160000012000E0002083465EB99048007840B198
:1016100000BF8FA105A8FEF707FE05A8FFF758FB3E
:1016200000BF8A4806702A4659463846FFF7A0FD93
:10163000FFF7E4FB8146B9F1000F1AD06F4800684C
:1016400000F5487025904FF0010800BF4846FFF7AD
:1016500089FB024683A1049005A8FEF7E5FD05A8D5
:10166000FFF736FB00BF4846FFF77CFB249000F0F5
:101670001FF9B8F1000F08D0604801682598814231
:1016800003D94FF000080020269000F0C5FBB8F108
:10169000000F1FD1594801682698081A502819D3FD
:1016A000564800682690FFF72FFE8146CDE902B527
:1016B000CDE904703B48B0F90A003A49B1F9081085
:1016C000CDE9001037484368324646480178204645
:1016D00000F0FCF8E2E60000433A204469676974D0
:1016E000616C204B657900004B3A2D2D2D2D204C3F
:1016F0003A25730057616974696E67206B65792EAE
:101700002E2E000020202020204C4F434B4544002B
:101710000030004057616974696E67207461672EFC
:101720002E2E00003D3D3D20433A204469676974F8
:10173000616C204B65792053797374656D20426F1D
:101740006F74202876322E30205A696762656520D2
:10175000494429203D3D3D0D0A0000004C6F636B5C
:10176000204449503A20256420207C20205761697C
:1017700074696E67206B6579205A696762656520B8
:1017800049442E2E2E0D0A00444950206368616E94
:101790006765643A202564202D3E2025640D0A00EB
:1017A0001C00002088000020780000205557423A95
:1017B000207461673D256C7520646973743D256CE8
:1017C000752F256C7520617A3D252B6420656C3D55
:1017D000252B64207A6F6E653D25730D0A0000008D
:1017E0003D0000203C0000205A69676265653A2090
:1017F0006B65795F69643D25640D0A000000002077
:101800001000002044000020140000205A494742E4
:1018100045455F444941473A202B256C7520627944
:101820007465732F732028746F74616C3D256C751B
:10183000290D0A00200000205461672074696D653D
:101840006F7574210D0A0000400000201800002070
:101850005A69676265652074696D656F7574210DDD
:101860000A0000004576656E743A2025730D0A0063
:1018700070B586B006460D46002403E0285D01A938
:101880000855641C285D08B1102CF7DB03E020200C
:1018900001A90855641C102CF9DB00208DF81400F8
:1018A00001AA01213046FFF7A7F806B070BD00007D
:1018B00010B5044621460320FFF7DAFF02A10420F9
:1018C000FFF7D6FF10BD0000000000002DE9F04F2B
:1018D0008BB004460D4616461F46DDE9168BDDF833
:1018E00050A004F0010008B1312000E030208DF854
:1018F000100004F0020008B1312000E030208DF823
:10190000110004F0040008B1312000E030208DF80F
:10191000120004F0080008B1312000E030208DF8FA
:10192000130000208DF814001EB305F0010008B16B
:10193000312000E030208DF8080005F0020008B1E9
:10194000312000E030208DF8090005F0040008B1D6
:10195000312000E030208DF80A0005F0080008B1C1
:10196000312000E030208DF80B0000208DF80C00B5
:101970000BE02D208DF808008DF809008DF80A0085
:101980008DF80B0000208DF80C0004AB02AA2DA1ED
:1019900006A8FEF749FC06A90120FFF769FFBBF185
:1019A000000F1ED116B90FF2A80906E0B8F1000F1A
:1019B00001D028A000E029A081464A4629A106A816
:1019C000FEF732FC06A90220FFF752FF26A10320F2
:1019D000FFF74EFF26A10420FFF74AFF0BB0BDE83A
:1019E000F08F16B90FF2680906E0B8F1000F01D0C8
:1019F00022A000E022A08146A7F11E02534621A1A9
:101A000006A8CDF80090FEF70FFC06A90220FFF70C
:101A10002FFF189800F04AFB81464A461DA106A8F0
:101A2000FEF702FC06A90320FFF722FF1998012800
:101A300001D11AA000E00EA001460420FFF718FF14
:101A400000BFCBE74B3A2573204C3A2573000000CA
:101A50002D2D000049443A4F4B00000049443A4EB6
:101A600047000000257300003E3E204E4F4E4500CB
:101A700020202020204C4F434B4544004F4B00007A
:101A80004E470000256C64636D20413A2564202593
:101A9000730000003E3E202573000000202020201F
:101AA00020554E4C4F434B002DE9F0414349086807
:101AB00000F09CF8804608F1010008B1BDE8F08113
:101AC0003E49088900F08CF8054642F201018D423A
:101AD00000D0F3E7FFF7E6F800B1EFE73749086910
:101AE00000F084F8364908603449486900F07EF80F
:101AF000334948603149098B88B200F071F800B26F
:101B00002F4908812D49498B88B200F069F800B24D
:101B10002B4948812949C88800F062F82849888102
:101B20002848446808464668371B002C09DD1E2FEC
:101B300002DD04F11E0604E017F11E0F01DAA4F124
:101B40001E0631462048FFF767F91E4948601C48C9
:101B5000B0F90800002804DA1948B0F9080040423A
:101B600002E01748B0F9080006B21648B0F908407C
:101B7000301B07B2002C0BDD0F2F03DD04F10F002B
:101B800006B205E017F10F0F02DAA4F10F0006B25A
:101B900031460E48FFF740F900B20A49088101209A
:101BA0000B4908700B4800680B4908600B48006837
:101BB000401C0A49086000BF80E70000F0000020D8
:101BC0007800002088000020D0000020E0000020E5
:101BD0001C00002000000020200000202400002025
:101BE0000146081240EA012080B2704701464FF4D6
:101BF0007F4202EA112242EA11604FF47F0202EAB8
:101C0000012210434FF07F4202EA01621043704705
:101C100070B504460D4616461748C0690121A1401B
:101C200008431549C86105EB85004000401E134973
:101C300051F82410888541F61F40104951F82410AE
:101C400008850E4850F82400008840F001000B4938
:101C500051F824100880094850F82400808940F089
:101C60000100064951F82410888104F11C00C1B21A
:101C70003046FEF781FD70BD001002405800002084
:101C80002DE9F04F89B081468A46B9F1000F01D1A4
:101C90001F4C00E01F4C4FEA0A1094FBF0FB584623
:101CA00000F075FCCDE90401504600F059FC0746F0
:101CB0000022194B00F07EFC05460E46204600F03F
:101CC000ADFE074600F05EFE2A463346CDE9000130
:101CD00000F0EEFACDE90201DDE9042300F068FD31
:101CE000CDE9060100F00AFA08904FF08341089808
:101CF00000F0ACFE0890089800F070FE00EB0B10AE
:101D0000064951F82910088109B0BDE8F08F00009C
:101D100000A24A0400512502000030406400002067
:101D200070B504460E46154634B91448806940F42F
:101D300080401249886108E01048C06904F1100130
:101D400001228A4010430D49C861204600F01AF86C
:101D500031462046FFF794FF094850F82400808957
:101D600042F22C010843064951F82410888104F1FD
:101D70002500C1B22846FEF7FFFC70BD00100240EE
:101D80006400002010B5044624B1012C0DD0022CB3
:101D900021D115E0032209210020FFF7C9F8042210
:101DA0000A210020FFF7C4F815E0032202210020D9
:101DB000FFF7BEF8042203210020FFF7B9F80AE07C
:101DC00003220A210120FFF7B3F804220B2101208E
:101DD000FFF7AEF800BF00BF10BD000000BF064A0D
:101DE00052F82020128802F04002002AF7D0024A5E
:101DF00052F82020918070476400002010B50446FE
:101E00000B4604E013F8011B2046FFF7E7FF1878A4
:101E10000028F7D110BD000000B5A1B0134800683C
:101E200013490968401AB0F57A7F1CD3114800683D
:101E300011490968401A114908600E4800680E49A6
:101E400008600A4800680A4908600C48006850B1F8
:101E500000BF0A480AA1026801A8FEF7E5F901A837
:101E6000FEF736FF00BF21B000BD000000000020DB
:101E70000800002024000020040000200C000020A6
:101E80004650533A256C750D0A00000010B5034802
:101E9000FFF72AF80248FFF727F810BDD00000200E
:101EA000E000002010B51B480088C4B2FF2C11D1FF
:101EB00019480078A8B919490878411C174A1170C7
:101EC00017490C5410460078042802DB01201249FF
:101ED000087010BD1048007818B900200F4908702C
:101EE000F7E70E480078252806DA0C490878411CE7
:101EF0000A4A11700A490C5408480078252806DB64
:101F0000FFF7D2FD0020054908700349087000BFA3
:101F1000DFE70000043801402900002028000020ED
:101F2000F000002010B501224FF4E1310020FFF74E
:101F3000F7FE002007490870074908700822074982
:101F40000748FEF7BEFF052206490748FEF7B9FF1E
:101F500010BD00002800002029000020980000206B
:101F6000D0000020B8000020E000002023490988AC
:101F7000C8B223490968491C214A116021490978DE
:101F800031B101290AD0022914D003292FD119E037
:101F9000AA2802D101211B4A11702CE0552803D137
:101FA0000221184A117004E0AA2802D00021154A23
:101FB000117020E000F00F01134A11700321114A43
:101FC000117018E0104A1278521ED1B288420AD11C
:101FD0000D4A12780D4B1A7001220D4B1A700D4AE2
:101FE00012680D4B1A600021064A117003E00021AF
:101FF000044A117000BF00BF704700000448004051
:102000004400002048000020490000203C0000203F
:102010003D000020000000204000002010B50122FB
:102020004FF4E1310220FFF77BFE002001490870E8
:1020300010BD00004800002003462D2A01DD0020CD
:102040007047B1F5D77F01D90020F9E723B3012B01
:1020500017D0022B0BD0032B1DD18C2905D9E629D3
:1020600001D80220ECE70120EAE70320E8E7822913
:1020700001D80320E4E7F02901D90120E0E702209C
:10208000DEE7822901D80320DAE7E62901D8022019
:10209000D6E70120D4E700BF822901D80320CFE78B
:1020A000E62901D80220CBE70120C9E7014631B17A
:1020B000012906D0022906D0032908D105E005A090
:1020C000704706A0FCE707A0FAE708A0F8E709A018
:1020D000F6E700004E4F4E450000000053454E53BA
:1020E000494E470057454C434F4D4500554E4C4FC8
:1020F000434B00003F3F3F3F0000000021F0004203
:10210000A2F16052B2F5801F01F0004328BFD2F166
:102110007F6C0BD95FEA001C43EAC20242EB5070AD
:1021200018BF704728BF20F001007047B2F5801F2C
:10213000BCBF184670474FEA410C1CF5001F02D285
:10214000084600F04ABD70B500F0DEFA00000089D4
:10215000FFF7F6BF4FF00040A0F580007047000089
:1021600010B591EA030F48BF83F0004300F12883C4
:10217000841A71EB030C05D2121943EB0C03001BFC
:1021800061EB0C01DFF824E14FEA1154A4EB135C7E
:102190001EEA430F18BF9EEA445F73D023EA0E0382
:1021A000DCF1200E21EA045143F4801332D322FAE9
:1021B0000CFE10EB0E0023FA0CFE41EB0E01CCF1ED
:1021C000200E03FA0EFE10EB0E0051F10001B1F5E6
:1021D000801FCCF1200E32D201EB045112FA0EF224
:1021E000BDE8104058BF7047401C38BF5FEA42024C
:1021F00018BF7047002814BF20F0010041F1000112
:102200004FEA410313F5001F38BF7047A1F1C041E9
:1022100000F0C8BA012A43EB0302ACF1200CDCF158
:102220001F0E32BF4FF0000E23FA0CF310EB030029
:1022300041EB0451B4EB115FD0D0A1EB045101F597
:10224000801149085FEA300001EB04510ED350F1D0
:10225000000038BF12FA0EFE08D1BDE81040C9E7F1
:10226000401C38BF5FEA4202CAD1C3E7BDE8104054
:102270004FEA410313F5001F38BF7047A1F1C04179
:1022800000F090BA9EEA445F08D011EA5E0FBDE804
:10229000104004BF01F0004100207047BDE810402D
:1022A00070B500F031FA00BF64FBBE3E0000E0FFF5
:1022B0002DE9C04130B4DFF8A0C23CEA111418BFC8
:1022C0003CEA131400F0EC8081EA03051CEA1114C7
:1022D00044EAD57418BF1CEA131500F0C780A4EBBC
:1022E00005044FF0004545EAC12145EAC32341EA10
:1022F000505143EA525304F17F74994204F500347B
:102300004FEAC0204FEAC22208BF904200F09C80F2
:102310004FEA13650FF24016765D4FEA134506FB50
:1023200005F7C7F1807706FB07F74FEAD737A7FB1A
:1023300003687642C8F58038A7FB06CE38BFA8F1FF
:10234000010807FB08E64FF0000EA6FB028CE6FB37
:1023500003CEDCF1000CCEF1004E38BFAEF1010E21
:10236000A6FB0C584FF000074FF00005E6FB0E8768
:10237000A1FB08C6A0FB07CE16EB0E0645F1000533
:10238000E1FB076515F1E04E7EBFA4F580345FEAFE
:1023900046066D4116F1800745F100054FEA172703
:1023A0004FEA066647EA0567A6F1DE46B6F1805FAA
:1023B0004FEA15251FD9384624F0010C05EBC471EE
:1023C000BCF1FE6F01EB0C1102D8F0BCBDE800813E
:1023D00024425CBF01F5801E9EEAC47F02D4F0BC9B
:1023E000BDE80081244238D4F0BCA1F1C041BDE871
:1023F000004100F0D7B94FEAD22242EA43524FEAF5
:10240000D323A7FB02864FEAD02040EA415007FBC6
:1024100003661EEA0E0F4FEAD12105FB026658BF84
:10242000A6EB0056B6EB00564FEA520E4EEAC37EBC
:1024300018EB0E0E56EB530EBDD518EB02085E419D
:102440007F1C55F10005B6E74FF480154FF00007EB
:102450004FF000064FF00008ADE7F0BC4FF0000071
:1024600001F1C04101F00041BDE8008111EA0C1FFB
:102470000CEA131500D00CE013EA0C1F00F02580C5
:102480004FF00000F0BC81EA030101F00041BDE81B
:102490000081F0BCBDE8004181EA030100F082B98F
:1024A000F0BCBDE8004170B500F02EF9097EFC3E9D
:1024B00000F007B881EA03014FF0000001F000418D
:1024C000704781EA030100F06DB9F0BCBDE800413E
:1024D0004FF0000021497047FFFDFBF9F7F5F4F2DA
:1024E000F0EEEDEBE9E8E6E4E3E1E0DEDDDBDAD8AF
:1024F000D7D5D4D3D1D0CFCDCCCBCAC8C7C6C5C40D
:10250000C2C1C0BFBEBDBCBBBAB9B8B7B6B5B4B323
:10251000B2B1B0AFAEADACABAAA9A8A8A7A6A5A40E
:10252000A3A3A2A1A09F9F9E9D9C9C9B9A999998D2
:102530009797969595949393929191908F8F8E8E75
:102540008D8C8C8B8B8A8989888887878685858402
:1025500084838382828181800000FF070000F87FEE
:1025600010F0004248BF4042B0FA80F310FA03F185
:102570000AD0C3F11D0303F580634FEA415002EB1B
:10258000035202EBD12170474FF000007047B0FAC0
:1025900080F310FA03F10AD0C3F11D0303F5806341
:1025A0004FEA41504FEA035202EBD12170474FF0FE
:1025B00000007047DFF848C170B51CEA111E1EBF4D
:1025C0001CEA13159EEA0C0F95EA0C0F00F06F80C1
:1025D00081EA030423EA4C134EEAD47E21EA4C112B
:1025E00041F4801143F48013AE44A1FB024CA0FBE4
:1025F0000365AEF17F7E361955EB0C05A1FB034C4C
:102600004CF10003A0FB021C16EB0C06654153F1D4
:102610000003094218BF46F0010613F4007F0BD1F6
:102620004FEA03314FEA0530340341EA155140EADD
:1026300016506FF003020AE04FEAC3214FEAC520AB
:10264000F40241EA555140EA56506FF0020202EBA3
:102650002E4201EB025585EACE710AD05FEA440CA6
:1026600018BF24F0004450F1000041F1000120EABD
:10267000D47040F2FE7C624500D270BDA84214BF07
:102680004FF080444FF04044002E08BF0024BEF1BC
:10269000806FA8BFA1F1C041BDE8704080F2828088
:1026A0004FF0000001F1C04101F0004170479EEA87
:1026B0000C0F0CEA131518BF95EA0C0F06D04FF05B
:1026C000000081EA030E0EF0004170BD00F01CF81E
:1026D0008900013E00F007B800F009B84FEA430C4A
:1026E0005FEA5C5C08D081EA030100F05BB84FEA66
:1026F000410C5FEA5C5CF6D14FF000000149704785
:102700000000FF070000F87F0EF1020E2EF0030E0E
:102710005EF8046B364205D4012A43EB030515F538
:10272000001F12D8012841EB010C1CF5001F0CD82A
:102730000ED14FEAD17C15F5001F0CEB4C0C0CF1BF
:10274000020C08BF4CEBD37C04E04FF0080C01E016
:102750004FEAD37C0CEB4C0526FA05F606F007068B
:10276000B6F1040C06D20EEB860CBDE870404CF0BE
:10277000010C6047DFE80CF0090B02024FF000414A
:102780004FF00000A1F5002170BD19461046012848
:1027900051EB010418BFD4F5001484BF002001F0F0
:1027A000004170BD0808A0F500114FEA31017047E3
:1027B00010B591EA030F48BF83F000433FF5D8AC52
:1027C000841A71EB030C07D212198CF0004C43EB06
:1027D0000C03001B61EB0C01DFF8A4E14FEA11547C
:1027E000A4EB135C1EEA430F18BF9EEA445F00F09F
:1027F000B08023EA6E03524221EA0451C3EB6E0318
:1028000038BF5B1EDCF1200E25D322FA0CFE10EB44
:102810000E0043FA0CFE41EB0E01CCF1200E03FA40
:102820000EFE10EB0E0051F10001CCF1200E29D468
:1028300012FA0EF201EB0451BDE8104058BF704788
:10284000401C1CBFB2F1004F704700280CBF491C50
:1028500020F00100704712EB020E43EB030218BF99
:102860004FF0010E4EEA4202ACF1200CDCF11E0EDC
:1028700054D943FA0CFE10EB0E0051F1FF31CCF1AC
:102880001E0ED5D50EF1010E12FA0EFE404141EB9F
:10289000010101EB445C5FEA5C5C10D910EBDE7077
:1028A00001EB045138BFBEF1004FBDE8104018BF26
:1028B000704700280CBF491C20F00100704730D23F
:1028C0004FEAD42C11F5001124F400641BD0B1FAA6
:1028D00081F20B3AA41AA41ED2F12003914030FADF
:1028E00003F31943904001EBCC71002C01EB045130
:1028F000BDE81040A8BF704701F1C0414FF0000093
:1029000001F000417047B0FA80F310FA03F100D1F2
:1029100010BDE41A173C4805C90AE4E701EB04516D
:1029200010BD491001EB0451BDE810404FEA3000E2
:1029300002E04FF0000170474A0008BF0042F8D0A3
:10294000B2F5001F28BF704701F000414FF00000B2
:1029500070479EEA445F07D011EA5E0FBDE8104061
:1029600004BF002100207047BDE8104070B5FFF79C
:10297000CBFE00BF40DFF63E83F0004110467047BB
:102980000000E0FF43004FEAD30C4FEA3C0C434009
:102990001FBF40070CF1605113F0FE4F70471CF051
:1029A000006F03D100200CF0004170470CF0004391
:1029B00043EA507010B540EACC0000F0C8F800BF00
:1029C000000000924FEA0001FFF7ECBE4FF000411B
:1029D0004FF00000A1F5002170470000C10DD1F1BA
:1029E0009E0206DB4FEA002343F0004323FA02F085
:1029F0007047004207D54FEA4001B1F1FE4F02D2C5
:102A00004FF00000704710B500F0A1F84992248003
:102A1000002070476FEA20007047000010F000416E
:102A200048BF4042B0FA80F310FA03F2C3F19D03AD
:102A30000BD051EAC35101EB1220530638BF704747
:102A400000F1010008BF20F0010070474FF47F0C37
:102A50001CEAD0121EBF1CEAD11392EA0C0F93EAB3
:102A60000C0F00F0478090EA010F48BF42F48072DB
:102A70004FF0004C4CEA00204CEA012102EB03022B
:102A8000A0FB0113A2F50002002918BF43F00103C7
:102A90005B0028BF4FEA330342EB22425FEA132C6C
:102AA0004CEBC2502EBFBCEB436FB2F57C0F7047AE
:102AB0004FEA036CBCF1004F08BF20F00100B2F5F3
:102AC0007C0F38BF70470BD582F0FF0212F5803FB4
:102AD000C8BF704700F1C040D8BF00F00040704749
:102AE00000F5000C5FEA4C0C48BF7047B0F1C040E5
:102AF00000F073B890EA010F0CEAD11348BF42F41A
:102B00008072624538BF634504D280EA010000F05C
:102B10000040704710B500F01AF800BF8900013E70
:102B200000F007B800F009B85FEA410C5FEA1C6CDE
:102B300008D080EA010000F050B85FEA400C5FEA7C
:102B40001C6CF6D14FF00040A0F5800070470EF1EC
:102B5000020E2EF0030E5EF8044B244204D44FEA1A
:102B60004102B2F17F4F11D84FEA4003B3F17F4FDA
:102B70000CD80ED14FEAD07CB2F17F4F0CEB4C0C4D
:102B80000CF1020C08BF4CEBD17C04E04FF0080CB8
:102B900001E04FEAD17C0CEB4C0324FA03F404F07F
:102BA0000704B4F1040C06D20EEB840CBDE810400F
:102BB0004CF0010C6047DFE80CF0070802024FF010
:102BC0000040A0F5800010BD0846420018BFD2F1B9
:102BD000807288BF00F0004010BDFF2141EAD05054
:102BE000C005704700000000000000000000000069
:102BF00000000000000000F80000000000000033AA
:102C00003000000000100C06100C06000000000050
:102C10000000000040C07840C0784000043F040439
:102C20003F040400007088FC08300000001820FFFA
:102C3000211E0000F008F000E018000000211C0335
:102C40001E211E0000F00888700000001E212324B1
:102C50001927211010160E000000000000000000CF
:102C600000000000000000E018040200000000075F
:102C70001820400000020418E00000000040201866
:102C800007000000404080F0804040000202010F39
:102C900001020200000000F0000000000101011F1D
:102CA00001010100000000000000000080B0700081
:102CB0000000000000000000000000000001010111
:102CC00001010101000000000000000000303000A0
:102CD000000000000000000080601804006018067A
:102CE0000100000000E010080810E000000F1020B4
:102CF00020100F00001010F8000000000020203FFE
:102D00002020000000700808088870000030282487
:102D10002221300000300888884830000018202028
:102D200020110E000000C02010F80000000704244D
:102D3000243F240000F80888880808000019212092
:102D400020110E0000E0108888180000000F1120EC
:102D500020110E0000380808C83808000000003FA5
:102D6000000000000070880808887000001C222104
:102D700021221C0000E010080810E00000003122B1
:102D800022110F00000000C0C00000000000003051
:102D900030000000000000800000000000008060A3
:102DA0000000000000008040201008000001020424
:102DB000081020004040404040404000040404040B
:102DC00004040400000810204080000000201008C7
:102DD00004020100007048080808F00000000030FC
:102DE00036010000C030C828E810E000071827248A
:102DF00023140B000000C038E0000000203C230238
:102E00000227382008F8888888700000203F20209A
:102E100020110E00C03008080808380007182020CC
:102E20002010080008F808080810E000203F2020C3
:102E300020100F0008F88888E8081000203F2020A4
:102E40002320180008F88888E8081000203F200098
:102E500003000000C03008080838000007182020D0
:102E6000221E020008F808000008F808203F21018F
:102E700001213F20000808F8080800000020203F3A
:102E80002020000000000808F8080800C0808080AA
:102E90007F00000008F888C028180800203F2001A3
:102EA0002638200008F8080000000000203F2020FD
:102EB0002020300008F8F800F8F80800203F003F14
:102EC000003F200008F830C00008F808203F20002C
:102ED00007183F00E01008080810E0000F1020203D
:102EE00020100F0008F808080808F000203F210112
:102EF00001010000E01008080810E0000F18242469
:102F000038504F0008F8888888887000203F2000DB
:102F1000030C302000708808080838000038202191
:102F200021221C00180808F8080818000000203F9B
:102F30002000000008F808000008F808001F202002
:102F400020201F000878880000C8380800000738D3
:102F50000E010000F80800F80008F800033C070024
:102F6000073C0300081868808068180820302C038C
:102F7000032C30200838C800C83808000000203F63
:102F80002000000010080808C83808002038262152
:102F900020201800000000FE020202000000007F56
:102FA00040404000000C30C0000000000000000164
:102FB0000638C00000020202FE000000004040404F
:102FC0007F00000000000402020204000000000074
:102FD00000000000000000000000000080808080F1
:102FE00080808080000202040000000000000000D9
:102FF0000000000000008080808000000019242272
:1030000022223F2008F8008080000000003F1120AD
:1030100020110E000000008080800000000E1120B2
:1030200020201100000000808088F800000E112090
:1030300020103F200000808080800000001F22229E
:1030400022221300008080F0888888180020203F0A
:10305000202000000000808080808000006B94941D
:103060009493600008F8008080800000203F2100D9
:1030700000203F2000809898000000000020203FA2
:1030800020200000000000809898000000C0808090
:10309000807F000008F8000080808000203F24022C
:1030A0002D302000000808F8000000000020203F1C
:1030B000202000008080808080808000203F2000D1
:1030C0003F20003F8080008080800000203F210062
:1030D00000203F200000808080800000001F202012
:1030E00020201F00808000808000000080FFA12041
:1030F00020110E000000008080808000000E112052
:1031000020A0FF80808080008080800020203F21E0
:103110002000010000008080808080000033242493
:1031200024241900008080E0808000000000001F3F
:10313000202000008080000000808000001F2020F0
:1031400020103F20808080000080808000010E30B1
:103150000806010080800080008080800F300C0312
:103160000C300F0000808000808080000020312E15
:103170000E312000808080000080808080818E70F1
:103180001806010000808080808080000021302CA3
:103190002221300000000000807C020200000000BC
:1031A000003F404000000000FF0000000000000061
:1031B000FF0000000002027C800000000040403F51
:1031C00000000000000601010202040400000000EB
:1031D00000000000040000080000000000000002E1
:1031E000000100001000000008320008000000206C
:1031F00074000000280100087C32000874000020E0
:103200000407000044010008000000000000000066
:1032100000000000000000000000000000000000AE
:10322000000000000000000000000000000000009E
:10323000000000000000000000000000000000008E
:10324000000000000000000000000000000000007E
:103250000000000000080140000C01400010014087
:103260000000004000040040000800400038014019
:0C32700000440040004800400000000046
:04000005080000ED02
:00000001FF
